{
  "contractName": "VotingSystem",
  "abi": [
    {
      "anonymous": false,
      "inputs": [
        {
          "components": [
            {
              "internalType": "string",
              "name": "voter",
              "type": "string"
            },
            {
              "internalType": "uint256",
              "name": "candidateId",
              "type": "uint256"
            },
            {
              "internalType": "uint256",
              "name": "electionId",
              "type": "uint256"
            }
          ],
          "indexed": false,
          "internalType": "struct VotingSystem.Vote",
          "name": "vote",
          "type": "tuple"
        }
      ],
      "name": "VoteInserted",
      "type": "event"
    },
    {
      "inputs": [],
      "name": "last_completed_migration",
      "outputs": [
        {
          "internalType": "uint256",
          "name": "",
          "type": "uint256"
        }
      ],
      "stateMutability": "view",
      "type": "function",
      "constant": true
    },
    {
      "inputs": [],
      "name": "owner",
      "outputs": [
        {
          "internalType": "address",
          "name": "",
          "type": "address"
        }
      ],
      "stateMutability": "view",
      "type": "function",
      "constant": true
    },
    {
      "inputs": [
        {
          "internalType": "uint256",
          "name": "completed",
          "type": "uint256"
        }
      ],
      "name": "setCompleted",
      "outputs": [],
      "stateMutability": "nonpayable",
      "type": "function"
    },
    {
      "inputs": [
        {
          "internalType": "uint256",
          "name": "",
          "type": "uint256"
        }
      ],
      "name": "votesForCandidate",
      "outputs": [
        {
          "internalType": "uint256",
          "name": "",
          "type": "uint256"
        }
      ],
      "stateMutability": "view",
      "type": "function",
      "constant": true
    },
    {
      "inputs": [
        {
          "internalType": "uint256",
          "name": "",
          "type": "uint256"
        }
      ],
      "name": "votesInElection",
      "outputs": [
        {
          "internalType": "uint256",
          "name": "",
          "type": "uint256"
        }
      ],
      "stateMutability": "view",
      "type": "function",
      "constant": true
    },
    {
      "inputs": [
        {
          "internalType": "string",
          "name": "_voter",
          "type": "string"
        },
        {
          "internalType": "uint256",
          "name": "_candidateId",
          "type": "uint256"
        },
        {
          "internalType": "uint256",
          "name": "_electionId",
          "type": "uint256"
        }
      ],
      "name": "insertVote",
      "outputs": [],
      "stateMutability": "nonpayable",
      "type": "function"
    }
  ],
  "bytecode": "0x6080604052336000806101000a81548173ffffffffffffffffffffffffffffffffffffffff021916908373ffffffffffffffffffffffffffffffffffffffff16021790555034801561005057600080fd5b506109d8806100606000396000f3fe608060405234801561001057600080fd5b50600436106100625760003560e01c80633a1bb70e14610067578063445df0ac146100835780635638015a146100a15780638da5cb5b146100d1578063fdacd576146100ef578063fe9722021461010b575b600080fd5b610081600480360381019061007c91906105fb565b61013b565b005b61008b6102d6565b6040516100989190610679565b60405180910390f35b6100bb60048036038101906100b69190610694565b6102dc565b6040516100c89190610679565b60405180910390f35b6100d96102f4565b6040516100e69190610702565b60405180910390f35b61010960048036038101906101049190610694565b610318565b005b61012560048036038101906101209190610694565b6103b0565b6040516101329190610679565b60405180910390f35b60008054906101000a900473ffffffffffffffffffffffffffffffffffffffff1673ffffffffffffffffffffffffffffffffffffffff163373ffffffffffffffffffffffffffffffffffffffff16146101c9576040517f08c379a00000000000000000000000000000000000000000000000000000000081526004016101c0906107a0565b60405180910390fd5b60006040518060600160405280858152602001848152602001848152509050600281908060018154018082558091505060019003906000526020600020906003020160009091909190915060008201518160000190805190602001906102309291906103c8565b506020820151816001015560408201518160020155505060036000848152602001908152602001600020600081548092919061026b906107ef565b9190505550600460008381526020019081526020016000206000815480929190610294906107ef565b91905055507f797afd5aa94e6fff0654107bcea92cb3485ca36e463bc84ebfa71ee92bf70c0b816040516102c8919061091f565b60405180910390a150505050565b60015481565b60036020528060005260406000206000915090505481565b60008054906101000a900473ffffffffffffffffffffffffffffffffffffffff1681565b60008054906101000a900473ffffffffffffffffffffffffffffffffffffffff1673ffffffffffffffffffffffffffffffffffffffff163373ffffffffffffffffffffffffffffffffffffffff16146103a6576040517f08c379a000000000000000000000000000000000000000000000000000000000815260040161039d906107a0565b60405180910390fd5b8060018190555050565b60046020528060005260406000206000915090505481565b8280546103d490610970565b90600052602060002090601f0160209004810192826103f6576000855561043d565b82601f1061040f57805160ff191683800117855561043d565b8280016001018555821561043d579182015b8281111561043c578251825591602001919060010190610421565b5b50905061044a919061044e565b5090565b5b8082111561046757600081600090555060010161044f565b5090565b6000604051905090565b600080fd5b600080fd5b600080fd5b600080fd5b6000601f19601f8301169050919050565b7f4e487b7100000000000000000000000000000000000000000000000000000000600052604160045260246000fd5b6104d282610489565b810181811067ffffffffffffffff821117156104f1576104f061049a565b5b80604052505050565b600061050461046b565b905061051082826104c9565b919050565b600067ffffffffffffffff8211156105305761052f61049a565b5b61053982610489565b9050602081019050919050565b82818337600083830152505050565b600061056861056384610515565b6104fa565b90508281526020810184848401111561058457610583610484565b5b61058f848285610546565b509392505050565b600082601f8301126105ac576105ab61047f565b5b81356105bc848260208601610555565b91505092915050565b6000819050919050565b6105d8816105c5565b81146105e357600080fd5b50565b6000813590506105f5816105cf565b92915050565b60008060006060848603121561061457610613610475565b5b600084013567ffffffffffffffff8111156106325761063161047a565b5b61063e86828701610597565b935050602061064f868287016105e6565b9250506040610660868287016105e6565b9150509250925092565b610673816105c5565b82525050565b600060208201905061068e600083018461066a565b92915050565b6000602082840312156106aa576106a9610475565b5b60006106b8848285016105e6565b91505092915050565b600073ffffffffffffffffffffffffffffffffffffffff82169050919050565b60006106ec826106c1565b9050919050565b6106fc816106e1565b82525050565b600060208201905061071760008301846106f3565b92915050565b600082825260208201905092915050565b7f546869732066756e6374696f6e206973207265737472696374656420746f207460008201527f686520636f6e74726163742773206f776e657200000000000000000000000000602082015250565b600061078a60338361071d565b91506107958261072e565b604082019050919050565b600060208201905081810360008301526107b98161077d565b9050919050565b7f4e487b7100000000000000000000000000000000000000000000000000000000600052601160045260246000fd5b60006107fa826105c5565b91507fffffffffffffffffffffffffffffffffffffffffffffffffffffffffffffffff82141561082d5761082c6107c0565b5b600182019050919050565b600081519050919050565b600082825260208201905092915050565b60005b83811015610872578082015181840152602081019050610857565b83811115610881576000848401525b50505050565b600061089282610838565b61089c8185610843565b93506108ac818560208601610854565b6108b581610489565b840191505092915050565b6108c9816105c5565b82525050565b600060608301600083015184820360008601526108ec8282610887565b915050602083015161090160208601826108c0565b50604083015161091460408601826108c0565b508091505092915050565b6000602082019050818103600083015261093981846108cf565b905092915050565b7f4e487b7100000000000000000000000000000000000000000000000000000000600052602260045260246000fd5b6000600282049050600182168061098857607f821691505b6020821081141561099c5761099b610941565b5b5091905056fea264697066735822122062d52f1c40d76b34ff1740d072521270fe85f8ee86bf6beea0e98a1f9ac93ca464736f6c634300080b0033",
  "immutableReferences": {},
  "source": "pragma solidity >=0.4.22 <0.9.0;\r\n\r\nimport \"./Migrations.sol\";\r\n\r\ncontract VotingSystem is Migrations {\r\n  \r\n  struct Vote {\r\n    string voter;\r\n    uint candidateId;\r\n    uint electionId;\r\n  }\r\n\r\n  event VoteInserted(Vote vote);\r\n\r\n  Vote[] votes;\r\n\r\n  //Vote count for a specific candidate\r\n  mapping(uint => uint) public votesForCandidate;\r\n\r\n  //Total votes in a specific election\r\n  mapping(uint => uint) public votesInElection;\r\n\r\n  function insertVote(string memory _voter, uint _candidateId, uint _electionId) public restricted {\r\n    Vote memory vote = Vote(_voter, _candidateId, _candidateId);\r\n    votes.push(vote);\r\n    votesForCandidate[_candidateId]++;\r\n    votesInElection[_electionId]++;\r\n    emit VoteInserted(vote);\r\n  }\r\n}",
  "sourcePath": "D:\\Projetos\\blockchain-voting-system\\contract\\contracts\\VotingSystem.sol",
  "compiler": {
    "name": "solc",
    "version": "0.8.11+commit.d7f03943.Emscripten.clang"
  },
  "schemaVersion": "3.4.4",
  "updatedAt": "2022-02-15T04:07:38.349Z",
  "networkType": "ethereum",
  "devdoc": {
    "kind": "dev",
    "methods": {},
    "version": 1
  },
  "userdoc": {
    "kind": "user",
    "methods": {},
    "version": 1
  }
}