{
  "contractName": "VotingSystem",
  "abi": [
    {
      "anonymous": false,
      "inputs": [
        {
          "components": [
            {
              "internalType": "string",
              "name": "voter",
              "type": "string"
            },
            {
              "internalType": "uint256",
              "name": "candidateId",
              "type": "uint256"
            },
            {
              "internalType": "uint256",
              "name": "electionId",
              "type": "uint256"
            }
          ],
          "indexed": false,
          "internalType": "struct VotingSystem.Vote",
          "name": "vote",
          "type": "tuple"
        }
      ],
      "name": "VoteInserted",
      "type": "event"
    },
    {
      "inputs": [
        {
          "internalType": "uint256",
          "name": "",
          "type": "uint256"
        }
      ],
      "name": "votes",
      "outputs": [
        {
          "internalType": "string",
          "name": "voter",
          "type": "string"
        },
        {
          "internalType": "uint256",
          "name": "candidateId",
          "type": "uint256"
        },
        {
          "internalType": "uint256",
          "name": "electionId",
          "type": "uint256"
        }
      ],
      "stateMutability": "view",
      "type": "function",
      "constant": true
    },
    {
      "inputs": [
        {
          "internalType": "string",
          "name": "_voter",
          "type": "string"
        },
        {
          "internalType": "uint256",
          "name": "_candidateId",
          "type": "uint256"
        },
        {
          "internalType": "uint256",
          "name": "_electionId",
          "type": "uint256"
        }
      ],
      "name": "insertVote",
      "outputs": [],
      "stateMutability": "nonpayable",
      "type": "function"
    },
    {
      "inputs": [
        {
          "internalType": "string",
          "name": "a",
          "type": "string"
        },
        {
          "internalType": "string",
          "name": "b",
          "type": "string"
        }
      ],
      "name": "compareString",
      "outputs": [
        {
          "internalType": "bool",
          "name": "",
          "type": "bool"
        }
      ],
      "stateMutability": "pure",
      "type": "function",
      "constant": true
    }
  ],
  "bytecode": "0x608060405234801561001057600080fd5b506108a1806100206000396000f3fe608060405234801561001057600080fd5b50600436106100415760003560e01c80633a1bb70e146100465780635df813301461006257806375b8318714610094575b600080fd5b610060600480360381019061005b91906104cd565b6100c4565b005b61007c6004803603810190610077919061053c565b61017f565b60405161008b93929190610600565b60405180910390f35b6100ae60048036038101906100a9919061063e565b610241565b6040516100bb91906106d1565b60405180910390f35b600060405180606001604052808581526020018481526020018381525090506000819080600181540180825580915050600190039060005260206000209060030201600090919091909150600082015181600001908051906020019061012b92919061029a565b50602082015181600101556040820151816002015550507f797afd5aa94e6fff0654107bcea92cb3485ca36e463bc84ebfa71ee92bf70c0b816040516101719190610795565b60405180910390a150505050565b6000818154811061018f57600080fd5b90600052602060002090600302016000915090508060000180546101b2906107e6565b80601f01602080910402602001604051908101604052809291908181526020018280546101de906107e6565b801561022b5780601f106102005761010080835404028352916020019161022b565b820191906000526020600020905b81548152906001019060200180831161020e57829003601f168201915b5050505050908060010154908060020154905083565b6000816040516020016102549190610854565b604051602081830303815290604052805190602001208360405160200161027b9190610854565b6040516020818303038152906040528051906020012014905092915050565b8280546102a6906107e6565b90600052602060002090601f0160209004810192826102c8576000855561030f565b82601f106102e157805160ff191683800117855561030f565b8280016001018555821561030f579182015b8281111561030e5782518255916020019190600101906102f3565b5b50905061031c9190610320565b5090565b5b80821115610339576000816000905550600101610321565b5090565b6000604051905090565b600080fd5b600080fd5b600080fd5b600080fd5b6000601f19601f8301169050919050565b7f4e487b7100000000000000000000000000000000000000000000000000000000600052604160045260246000fd5b6103a48261035b565b810181811067ffffffffffffffff821117156103c3576103c261036c565b5b80604052505050565b60006103d661033d565b90506103e2828261039b565b919050565b600067ffffffffffffffff8211156104025761040161036c565b5b61040b8261035b565b9050602081019050919050565b82818337600083830152505050565b600061043a610435846103e7565b6103cc565b90508281526020810184848401111561045657610455610356565b5b610461848285610418565b509392505050565b600082601f83011261047e5761047d610351565b5b813561048e848260208601610427565b91505092915050565b6000819050919050565b6104aa81610497565b81146104b557600080fd5b50565b6000813590506104c7816104a1565b92915050565b6000806000606084860312156104e6576104e5610347565b5b600084013567ffffffffffffffff8111156105045761050361034c565b5b61051086828701610469565b9350506020610521868287016104b8565b9250506040610532868287016104b8565b9150509250925092565b60006020828403121561055257610551610347565b5b6000610560848285016104b8565b91505092915050565b600081519050919050565b600082825260208201905092915050565b60005b838110156105a3578082015181840152602081019050610588565b838111156105b2576000848401525b50505050565b60006105c382610569565b6105cd8185610574565b93506105dd818560208601610585565b6105e68161035b565b840191505092915050565b6105fa81610497565b82525050565b6000606082019050818103600083015261061a81866105b8565b905061062960208301856105f1565b61063660408301846105f1565b949350505050565b6000806040838503121561065557610654610347565b5b600083013567ffffffffffffffff8111156106735761067261034c565b5b61067f85828601610469565b925050602083013567ffffffffffffffff8111156106a05761069f61034c565b5b6106ac85828601610469565b9150509250929050565b60008115159050919050565b6106cb816106b6565b82525050565b60006020820190506106e660008301846106c2565b92915050565b600082825260208201905092915050565b600061070882610569565b61071281856106ec565b9350610722818560208601610585565b61072b8161035b565b840191505092915050565b61073f81610497565b82525050565b6000606083016000830151848203600086015261076282826106fd565b91505060208301516107776020860182610736565b50604083015161078a6040860182610736565b508091505092915050565b600060208201905081810360008301526107af8184610745565b905092915050565b7f4e487b7100000000000000000000000000000000000000000000000000000000600052602260045260246000fd5b600060028204905060018216806107fe57607f821691505b60208210811415610812576108116107b7565b5b50919050565b600081905092915050565b600061082e82610569565b6108388185610818565b9350610848818560208601610585565b80840191505092915050565b60006108608284610823565b91508190509291505056fea264697066735822122061723ef111052b495a14d7d55b95cd1671aa8b9a47b230cd599fbcc1d82b94b764736f6c634300080b0033",
  "immutableReferences": {},
  "source": "pragma solidity >=0.4.22 <0.9.0;\r\n\r\nimport \"./Migrations.sol\";\r\n\r\ncontract VotingSystem {\r\n  \r\n  struct Vote {\r\n    string voter;\r\n    uint candidateId;\r\n    uint electionId;\r\n  }\r\n\r\n  event VoteInserted(Vote vote);\r\n\r\n  Vote[] public votes;\r\n\r\n  // //Vote count for a specific candidate\r\n  // mapping(uint => uint) public numberOfVotesForCandidate;\r\n\r\n  // //Total votes in a specific election\r\n  // mapping(uint => uint) public numberOfVotesInElection;\r\n\r\n  function insertVote(string memory _voter, uint _candidateId, uint _electionId) public {\r\n    Vote memory vote = Vote(_voter, _candidateId, _electionId);\r\n    votes.push(vote);\r\n    // numberOfVotesForCandidate[_candidateId] = numberOfVotesForCandidate[_candidateId] + 1;\r\n    // numberOfVotesInElection[_electionId] = numberOfVotesInElection[_electionId] + 1;\r\n    emit VoteInserted(vote);\r\n  }\r\n\r\n  // function userHasVoted(string memory _voter, uint _electionId) public view returns(bool) {\r\n  //   uint arrayLength = votes.length;\r\n  //   for (uint i = 0; i < arrayLength; i++) {\r\n  //     if ((votes[i].electionId == _electionId) && (compareString(_voter, votes[i].voter))){\r\n  //       return true;\r\n  //     }\r\n  //   }\r\n  //   return false;\r\n  // }\r\n\r\n  function compareString(string memory a, string memory b) public pure returns (bool) {\r\n    return (keccak256(abi.encodePacked(a)) == keccak256(abi.encodePacked(b)));\r\n  }\r\n}",
  "sourcePath": "D:\\Projetos\\blockchain-voting-system\\contract\\contracts\\VotingSystem.sol",
  "compiler": {
    "name": "solc",
    "version": "0.8.11+commit.d7f03943.Emscripten.clang"
  },
  "schemaVersion": "3.4.4",
  "updatedAt": "2022-02-16T23:37:56.401Z",
  "networkType": "ethereum",
  "devdoc": {
    "kind": "dev",
    "methods": {},
    "version": 1
  },
  "userdoc": {
    "kind": "user",
    "methods": {},
    "version": 1
  }
}