{
  "contractName": "VotingSystem",
  "abi": [
    {
      "anonymous": false,
      "inputs": [
        {
          "components": [
            {
              "internalType": "string",
              "name": "voter",
              "type": "string"
            },
            {
              "internalType": "uint256",
              "name": "candidateId",
              "type": "uint256"
            },
            {
              "internalType": "uint256",
              "name": "electionId",
              "type": "uint256"
            }
          ],
          "indexed": false,
          "internalType": "struct VotingSystem.Vote",
          "name": "vote",
          "type": "tuple"
        }
      ],
      "name": "VoteInserted",
      "type": "event"
    },
    {
      "inputs": [],
      "name": "last_completed_migration",
      "outputs": [
        {
          "internalType": "uint256",
          "name": "",
          "type": "uint256"
        }
      ],
      "stateMutability": "view",
      "type": "function",
      "constant": true
    },
    {
      "inputs": [],
      "name": "owner",
      "outputs": [
        {
          "internalType": "address",
          "name": "",
          "type": "address"
        }
      ],
      "stateMutability": "view",
      "type": "function",
      "constant": true
    },
    {
      "inputs": [
        {
          "internalType": "uint256",
          "name": "completed",
          "type": "uint256"
        }
      ],
      "name": "setCompleted",
      "outputs": [],
      "stateMutability": "nonpayable",
      "type": "function"
    },
    {
      "inputs": [
        {
          "internalType": "uint256",
          "name": "",
          "type": "uint256"
        }
      ],
      "name": "votesForCandidate",
      "outputs": [
        {
          "internalType": "uint256",
          "name": "",
          "type": "uint256"
        }
      ],
      "stateMutability": "view",
      "type": "function",
      "constant": true
    },
    {
      "inputs": [
        {
          "internalType": "uint256",
          "name": "",
          "type": "uint256"
        }
      ],
      "name": "votesInElection",
      "outputs": [
        {
          "internalType": "uint256",
          "name": "",
          "type": "uint256"
        }
      ],
      "stateMutability": "view",
      "type": "function",
      "constant": true
    },
    {
      "inputs": [
        {
          "internalType": "string",
          "name": "_voter",
          "type": "string"
        },
        {
          "internalType": "uint256",
          "name": "_candidateId",
          "type": "uint256"
        },
        {
          "internalType": "uint256",
          "name": "_electionId",
          "type": "uint256"
        }
      ],
      "name": "insertVote",
      "outputs": [],
      "stateMutability": "nonpayable",
      "type": "function"
    }
  ],
  "bytecode": "0x6080604052336000806101000a81548173ffffffffffffffffffffffffffffffffffffffff021916908373ffffffffffffffffffffffffffffffffffffffff16021790555034801561005057600080fd5b50610a01806100606000396000f3fe608060405234801561001057600080fd5b50600436106100625760003560e01c80633a1bb70e14610067578063445df0ac146100835780635638015a146100a15780638da5cb5b146100d1578063fdacd576146100ef578063fe9722021461010b575b600080fd5b610081600480360381019061007c9190610617565b61013b565b005b61008b6102f2565b6040516100989190610695565b60405180910390f35b6100bb60048036038101906100b691906106b0565b6102f8565b6040516100c89190610695565b60405180910390f35b6100d9610310565b6040516100e6919061071e565b60405180910390f35b610109600480360381019061010491906106b0565b610334565b005b610125600480360381019061012091906106b0565b6103cc565b6040516101329190610695565b60405180910390f35b60008054906101000a900473ffffffffffffffffffffffffffffffffffffffff1673ffffffffffffffffffffffffffffffffffffffff163373ffffffffffffffffffffffffffffffffffffffff16146101c9576040517f08c379a00000000000000000000000000000000000000000000000000000000081526004016101c0906107bc565b60405180910390fd5b60006040518060600160405280858152602001848152602001848152509050600281908060018154018082558091505060019003906000526020600020906003020160009091909190915060008201518160000190805190602001906102309291906103e4565b506020820151816001015560408201518160020155505060016003600085815260200190815260200160002054610267919061080b565b60036000858152602001908152602001600020819055506001600460008481526020019081526020016000205461029e919061080b565b60046000848152602001908152602001600020819055507f797afd5aa94e6fff0654107bcea92cb3485ca36e463bc84ebfa71ee92bf70c0b816040516102e49190610948565b60405180910390a150505050565b60015481565b60036020528060005260406000206000915090505481565b60008054906101000a900473ffffffffffffffffffffffffffffffffffffffff1681565b60008054906101000a900473ffffffffffffffffffffffffffffffffffffffff1673ffffffffffffffffffffffffffffffffffffffff163373ffffffffffffffffffffffffffffffffffffffff16146103c2576040517f08c379a00000000000000000000000000000000000000000000000000000000081526004016103b9906107bc565b60405180910390fd5b8060018190555050565b60046020528060005260406000206000915090505481565b8280546103f090610999565b90600052602060002090601f0160209004810192826104125760008555610459565b82601f1061042b57805160ff1916838001178555610459565b82800160010185558215610459579182015b8281111561045857825182559160200191906001019061043d565b5b509050610466919061046a565b5090565b5b8082111561048357600081600090555060010161046b565b5090565b6000604051905090565b600080fd5b600080fd5b600080fd5b600080fd5b6000601f19601f8301169050919050565b7f4e487b7100000000000000000000000000000000000000000000000000000000600052604160045260246000fd5b6104ee826104a5565b810181811067ffffffffffffffff8211171561050d5761050c6104b6565b5b80604052505050565b6000610520610487565b905061052c82826104e5565b919050565b600067ffffffffffffffff82111561054c5761054b6104b6565b5b610555826104a5565b9050602081019050919050565b82818337600083830152505050565b600061058461057f84610531565b610516565b9050828152602081018484840111156105a05761059f6104a0565b5b6105ab848285610562565b509392505050565b600082601f8301126105c8576105c761049b565b5b81356105d8848260208601610571565b91505092915050565b6000819050919050565b6105f4816105e1565b81146105ff57600080fd5b50565b600081359050610611816105eb565b92915050565b6000806000606084860312156106305761062f610491565b5b600084013567ffffffffffffffff81111561064e5761064d610496565b5b61065a868287016105b3565b935050602061066b86828701610602565b925050604061067c86828701610602565b9150509250925092565b61068f816105e1565b82525050565b60006020820190506106aa6000830184610686565b92915050565b6000602082840312156106c6576106c5610491565b5b60006106d484828501610602565b91505092915050565b600073ffffffffffffffffffffffffffffffffffffffff82169050919050565b6000610708826106dd565b9050919050565b610718816106fd565b82525050565b6000602082019050610733600083018461070f565b92915050565b600082825260208201905092915050565b7f546869732066756e6374696f6e206973207265737472696374656420746f207460008201527f686520636f6e74726163742773206f776e657200000000000000000000000000602082015250565b60006107a6603383610739565b91506107b18261074a565b604082019050919050565b600060208201905081810360008301526107d581610799565b9050919050565b7f4e487b7100000000000000000000000000000000000000000000000000000000600052601160045260246000fd5b6000610816826105e1565b9150610821836105e1565b9250827fffffffffffffffffffffffffffffffffffffffffffffffffffffffffffffffff03821115610856576108556107dc565b5b828201905092915050565b600081519050919050565b600082825260208201905092915050565b60005b8381101561089b578082015181840152602081019050610880565b838111156108aa576000848401525b50505050565b60006108bb82610861565b6108c5818561086c565b93506108d581856020860161087d565b6108de816104a5565b840191505092915050565b6108f2816105e1565b82525050565b6000606083016000830151848203600086015261091582826108b0565b915050602083015161092a60208601826108e9565b50604083015161093d60408601826108e9565b508091505092915050565b6000602082019050818103600083015261096281846108f8565b905092915050565b7f4e487b7100000000000000000000000000000000000000000000000000000000600052602260045260246000fd5b600060028204905060018216806109b157607f821691505b602082108114156109c5576109c461096a565b5b5091905056fea2646970667358221220397b63cc9577c62a1000d43f0d068eabdab3fa57d3df6fdd8a2723e3f30bb43f64736f6c634300080b0033",
  "immutableReferences": {},
  "source": "pragma solidity >=0.4.22 <0.9.0;\r\n\r\nimport \"./Migrations.sol\";\r\n\r\ncontract VotingSystem is Migrations {\r\n  \r\n  struct Vote {\r\n    string voter;\r\n    uint candidateId;\r\n    uint electionId;\r\n  }\r\n\r\n  event VoteInserted(Vote vote);\r\n\r\n  Vote[] votes;\r\n\r\n  //Vote count for a specific candidate\r\n  mapping(uint => uint) public votesForCandidate;\r\n\r\n  //Total votes in a specific election\r\n  mapping(uint => uint) public votesInElection;\r\n\r\n  function insertVote(string memory _voter, uint _candidateId, uint _electionId) public restricted {\r\n    Vote memory vote = Vote(_voter, _candidateId, _candidateId);\r\n    votes.push(vote);\r\n    votesForCandidate[_candidateId] = votesForCandidate[_candidateId] + 1;\r\n    votesInElection[_electionId] = votesInElection[_electionId] + 1;\r\n    emit VoteInserted(vote);\r\n  }\r\n}",
  "sourcePath": "D:\\Projetos\\blockchain-voting-system\\contract\\contracts\\VotingSystem.sol",
  "compiler": {
    "name": "solc",
    "version": "0.8.11+commit.d7f03943.Emscripten.clang"
  },
  "schemaVersion": "3.4.4",
  "updatedAt": "2022-02-16T04:40:48.721Z",
  "networkType": "ethereum",
  "devdoc": {
    "kind": "dev",
    "methods": {},
    "version": 1
  },
  "userdoc": {
    "kind": "user",
    "methods": {},
    "version": 1
  }
}